:020000040800F2
:10000000584E0020AD2E0008ED2D0008EF2D000801
:10001000F12D0008F32D0008F52D00080000000068
:100020000000000000000000000000000D130008A8
:10003000F72D000800000000B5120008F92D000897
:10004000D52E0008D92E0008DD2E0008E12E00086C
:10005000E52E0008E92E0008ED2E0008F12E00081C
:10006000F52E0008F92E0008FD2E0008012F0008CB
:10007000052F0008092F00080D2F0008112F000878
:10008000152F0008192F00081D2F0008212F000828
:10009000252F0008292F00082D2F0008312F0008D8
:1000A000352F0008392F00083D2F0008412F000888
:1000B000452F0008492F00084D2F0008512F000838
:1000C000552F0008592F00085D2F0008612F0008E8
:1000D000652F0008692F00086D2F0008712F000898
:1000E000752F0008792F00087D2F0008812F000848
:1000F000852F0008892F00088D2F0008912F0008F8
:10010000952F0008992F00089D2F0008A12F0008A7
:10011000A52F0008A92F0008AD2F0008B12F000857
:10012000B52F0008B92F0008BD2F0008C12F000807
:10013000C52F0008C92F0008CD2F0008D12F0008B7
:10014000D52F0008D92F0008DD2F0008E12F000867
:10015000E52F0008E92F0008ED2F0008F12F000817
:10016000F52F0008F92F0008FD2F000801300008C6
:1001700005300008093000080D30000800000000BC
:100180001130000815300008193000081D30000833
:100190002130000825300008293000082D300008E3
:1001A000313000083530000839300008F0B585B02E
:1001B00050260B9D25B986F3118800F03EFAFEE724
:1001C0000C9C24B986F3118800F037FAFEE75C270F
:1001D0000097009F5C2F04D086F3118800F02DFA61
:1001E000FEE7009E25630026022584F8595004AFDF
:1001F0000A9D039602940197009500F034F820467A
:1002000000F077F8049805B0F0BD2DE9F8430646F4
:10021000174684B088469946B80000F075FB050083
:100220001CD05C2000F070FB040014D0002025637B
:1002300084F85900039002940D980C990190009154
:100240004B463A464146304600F00DF8204600F055
:1002500050F8012004E0284600F0DFFB4FF0FF30AB
:1002600005B0BDE8F0832DE9F0470A9F81460C46B2
:100270001546386B9A46A522A90000F021FC396B7F
:1002800001EB8502101FC0084FEAC00808F0070004
:1002900007F1340554B10021625C6A54605C10B10E
:1002A000491C1029F8D30020E87300E02870089E4C
:1002B000099C372E88BF3726FE62AE61E861C6F121
:1002C0003806381D00F026FC07F1180000F022FC6B
:1002D0003F61BE617F620020286287F85800524665
:1002E0004946404600F052FC386004B12760BDE842
:1002F000F0872DE9F04100F06BF8DFF86855DFF882
:100300006885E86C401CE8641426A86A28BBAC62C7
:10031000E86C012829D1002706FB07F0404400F0D3
:10032000ECFB7F1C382FF7D305F1740000F0E5FBE0
:1003300005F18807384600F0E0FB284600F0DDFBB9
:1003400005F1140000F0D9FB05F1380000F0D5FBF1
:1003500005F17400E8622F6307E0A86D28B9E06A30
:10036000A96ACA6A904228BFAC62A86EE26A401CC1
:100370006064696D914238BF6A65A8665643211D65
:1003800008EB060000F0C9FB00F08BFCA86D30B153
:1003900000F0A0F903D200F076FA00F04EF9BDE8C3
:1003A000F08180B588B1DFF8BC24116F21B100F075
:1003B0002BF900F042F9FEE7116F491C116700218B
:1003C00000F06CFA00F044F808B900F031F901BD12
:1003D000044600F04DBC80B586B000210591049123
:1003E00003AA04A905A800F083FD059804990290CA
:1003F0000022009201910023039A0FF204510FF2A0
:100400005D30FFF7D3FE98B100F088FD5021012840
:1004100010D181F3118800F010F9DFF8D0044FF00B
:10042000FF31C166012282650021016500F0D0FB29
:1004300007B000BD10F1010FFAD181F3118800F06F
:10044000FCF8FEE7DFF8A404016F491C0167704760
:1004500070B5DFF81064306F0024002520B900F07B
:1004600042F800F0EAF8FEE700F002FC306F401EB0
:100470003067306F002835D1F06CD0B932E0F068C9
:10048000C46800F034F800F0BBF9E06A716DDFF881
:100490006024814238BF706514235843211D1044E5
:1004A00000F03BFBE06AB16ACA6A904224BF0121B6
:1004B000316630680028E2D10CB100F088F9F46DA3
:1004C0003CB100F01CF808B101203066641EF8D180
:1004D000F565306E30B1DFF81C144FF08050012507
:1004E00000F0AAF8C8E1502181F31188704704F1A7
:1004F000180000F038BBDFF8F403006D70472DE9F9
:10050000F843DFF86073386F002600284DD13C6D4A
:10051000641C3C6510D1F86A006820B1FFF7E3FF66
:1005200000F08BF8FEE7F86A396BF9623863786E91
:10053000401C786600F04BF9F86EDFF8B493844203
:100540004FF0140827D319E0281D00F00CFBA86A0F
:1005500018B105F1180000F006FBE86A796D8142D8
:1005600038BF786508FB00F0291D484400F0D5FA33
:10057000E86AB96ACA6A904228BF0126F86A006828
:1005800030B1F86AC168CD6868688442DCD201E0A5
:100590004FF0FF30F866B86AC06A08FB00F059F8FF
:1005A0000010022904D3012602E0F86D401CF86512
:1005B000386E00B1012663E110B5DFF8A822106F94
:1005C00010B10121116610BD1066516DDFF82033A6
:1005D00000E0491E14244C43185930B90029F8D1C1
:1005E00000F012F800F029F8FEE7181900F10804ED
:1005F00043685B684360A34204BF5B684360406834
:10060000C3689362516510BD502080F31188704714
:1006100010B50C4620B9FFF7F7FF00F00EF8FEE723
:1006200000F027F800F086FA2046BDE8104009E007
:10063000DFF8C0124FF080500860BFF34F8FBFF358
:100640006F8F7047012129E138B50D46144620B956
:10065000FFF7DAFFFFF7F1FFFEE700F00AF800F01E
:100660005CFA0CB14FF0FF3521462846BDE8344016
:1006700014E1DFF87822936A03F11801704738B566
:10068000C068C46824B9FFF7BFFFFFF7D6FFFEE7D5
:10069000FFF72DFFDFF85452286F40B900F0B0F893
:1006A00000F012F838BF6A6500F0F3F802E004F1D8
:1006B0001801284600F031FA00F00CF802D20120AF
:1006C000286632BD002032BDE26A686DDFF8203254
:1006D00090427047A86AC16AE06A81427047DFF8B9
:1006E0000C124A6E0260096D41607047F8B504460D
:1006F0000D46502024B980F31188FFF79EFFFEE7D6
:1007000025B980F31188FFF798FFFEE700F0B0FAF3
:10071000DFF8D801016D62682E688B1A16F1010F9F
:100720000ED0476ED4F800C0674501D091420BD27D
:10073000B34207D2F31A2B60416E2160006D6060F6
:10074000002402E000202860012400F0AAFA2046DC
:10075000F2BDDFF8981101200866704770B5424C71
:10076000DFF8885111E000F083FA286AC668301D6E
:1007700000F0F9F9E86C401EE864686B401E68639D
:1007800000F08FFA304600F00BF8686B0028EAD1D1
:100790002168022901D3FFF74BFF00F06DFDF4E75C
:1007A00010B5044694F8590040B9206B00F035F9B3
:1007B0002046BDE8104000F030B910BD0128F7D048
:1007C0000228FAD0FFF720FFFFF737FFFEE72549A1
:1007D000C86A006810B94FF0FF3203E0C86AC26807
:1007E000D0684268CA667047DFF80011886D08B9A2
:1007F00001207047086F08B9022070470020704739
:10080000201D00F0B0B938B5044600213CB3154DA9
:10081000A86A5022844204D082F31188FFF70DFFAA
:10082000FEE7206D20B982F31188FFF706FFFEE78F
:10083000E26AE36C401E9A42206510D078B9FFF757
:10084000DFFFE26CDFF8A830E262C2F13800A0619D
:10085000696D914238BF6A6500F008F801210846C9
:1008600032BD000078490020343C0020142042436F
:10087000211D981800F051B900F013FA284670BDF8
:100880003046BDE8F2831B4A4FF08051116070473B
:10089000000014204243211D98187047F8B5134DED
:1008A0002F6D0C46A96A0646081D00F05CF916F18A
:1008B000010F05D124B1A86A011D05F138001BE024
:1008C000A86AF6194660BE42A86A05D2011D286BC7
:1008D000BDE8F44000F02EB9011DE86A00F02AF9E5
:1008E000E86E864238BFEE66F1BD00007849002010
:1008F000343C002004ED00E0BDE8F44000F00DB908
:1009000049444C45000000002DE9F8430446FFF738
:1009100099FD6A4FB8684FF00009002508BB07F140
:10092000180307F1180113F0070F4FF470500A462F
:1009300005D0CA1DD208D200C2F570500818801820
:100940000838C008C0003A607D60B8604560056046
:10095000831A5360106050683861F8604FF00040AF
:1009600078614FF050087869044246D1002C44D099
:10097000083414F0070F1FBF04F1080004F0070447
:10098000041B14F0070F02D000F040F8FEE7A4B3F8
:10099000F868A04231D33E68394601E03146064648
:1009A0007068A04202D230680028F7D1B868864249
:1009B00023D00A683068086002F108097268121BC7
:1009C000112A0CD3311911F0070002D000F01EF8E3
:1009D000FEE7301D02517460084600F048F8716867
:1009E000F8683A69401AF860904238BF386178690F
:1009F00001437160356009F00705FFF729FD15B166
:100A000000F004F8FEE74846BDE8F28388F3118859
:100A1000BFF34F8FBFF36F8F7047002800D170472F
:100A200038B5A0F10804254D61686A695023114268
:100A300002D100F015F8FEE7206810B100F010F8C0
:100A4000FEE791436160FFF7FDFCE96860684118CB
:100A5000E960204600F00BF8BDE83140FFF7F8BC34
:100A600083F31188BFF34F8FBFF36F8F704730B59B
:100A700012490A4600E01A4613688342FBD35368C2
:100A8000D418844203D14068C318536010464368A9
:100A90001468C518A5420AD189688C4205D06168DE
:100AA000CB1843602368036002E0016000E004604B
:100AB000824218BF106030BD000000001C00002002
:100AC00062F30F2262F31F4200B500BF1300964687
:100AD0009446103928BFA0E80C50FAD85FEA417C50
:100AE00028BF0CC048BF40F8042BC90728BF20F816
:100AF000022B48BF00F8012B00BD4FF0FF3200F180
:100B0000080182604160C16000F1080202610021B9
:100B10000160704700210161704710B542684A606A
:100B200093688B6094686160916008610168491CFA
:100B3000016010BD30B50A6812F1010F08BF0369EA
:100B400007D000F1080300E023465C682568AA424C
:100B5000FAD25A684A6091608B60596008610168F6
:100B6000491C016030BD4368016982689A608368EE
:100B700042685A604A68824204BF83684B60002220
:100B800002610868401E086008687047490810B58F
:100B90004900A0F120034FF0807499611A60DC6174
:100BA0006FF002020FF20D01596140F8242D203838
:100BB00010BD00005A494A68502012F1010F80F31D
:100BC0001188BFF34F8FBFF36F8F00D0FEE7FEE7B2
:100BD0007CB5544A544B10685021984202D100F021
:100BE000B1F8FEE71068514B984202D100F0AAF824
:100BF000FEE74F4B1C780194FF251D701E78484C72
:100C00008DF800609DF8000000F050002070072073
:100C100005E09DF800506D00401E8DF800509DF8D5
:100C200000502E06F5D4C0F10705042D03D0A060B6
:100C300000F088F8FEE7000200F4E060A060019890
:100C40001870116A41F470011162106A40F070402E
:100C5000106200F07FF80020606000F075FB3548FE
:100C6000016841F04041016000F05EFB002076BD6C
:100C7000502080F31188BFF34F8FBFF36F8F284947
:100C80004A68521C012A4A600AD12B490A68130695
:100C900006D080F31188BFF34F8FBFF36F8FFEE74D
:100CA00070471F49486838B9502080F31188BFF356
:100CB0004F8FBFF36F8FFEE7401E486008BF80F381
:100CC0001188704780B5502080F31188BFF34F8F93
:100CD000BFF36F8FFFF713FC18B117494FF0805027
:100CE0000860002282F3118801BD000010B5EFF307
:100CF0000580502110280A4A07D3104B185C14783D
:100D0000A04202D200F01EF8FEE790680C4A136879
:100D100003F4E063984202D200F014F8FEE710BD3D
:100D20000000002000ED00E071C20F4170C20F41D1
:100D300000E400E034EF00E004ED00E0F0E300E068
:100D40000CED00E081F31188BFF34F8FBFF36F8F7D
:100D5000704700000748084B0021016081604FF494
:100D60007A721968B1FBF2F2521E426007210160EB
:100D7000704700BF10E000E018000020EFF305808E
:100D800060B9DFF86811EFF31080002804BFEFF3BB
:100D90001180002803D00868022800D17FE008688D
:100DA00010B901220A6070474FF0FF307047000011
:100DB00080B5EFF3058058B9DFF8301100F072F814
:100DC00004BFEFF31180002803D00868022800D187
:100DD00009E00868012805D102220A60FFF7FBFA42
:100DE000002002BD02E06FF0050002BD4FF0FF30B1
:100DF00002BDF8B584B000230393EFF30583002B05
:100E00004AD1EFF31083002B04BFEFF31183002BC3
:100E100004D0DFF8D8301C68022C3DD003003BD052
:100E20008025182600245AB3136803B11C46936921
:100E30001BB11E0004D0392E02D21379DF0701D571
:100E400000202AE0536903B19D08D2F80CC09768CE
:100E500087B1BCF15C0F1FD31269002A18BF002BA9
:100E60001AD001920B46029700962A462146FFF7B8
:100E70009DF910E0BCF1000F04BF1269002A0BD1EC
:100E800003AB019300960B46AAB22146FFF7BDF9CA
:100E9000012801D000200390039805B0F0BD6FF049
:100EA00005007047EFF310800028704710B5EFF38E
:100EB000058149B900F011F804BFEFF31181002951
:100EC00005D000F00EF802D16FF0050403E0002415
:100ED00008B1FFF766FA204610BDEFF31081002934
:100EE000704702490A68022A70470000544A0020ED
:100EF000084B036003F15C000860802111607047BB
:100F0000054B036003F15C0008604FF480711160D1
:100F100070470000F04400209440002010B586B0D7
:100F200000F076F9DFF83843A068D0B100210591D0
:100F3000049103AA04A905A8FFF7E2FF0598049904
:100F400002900222009201910023039A0FF21831BD
:100F50000FF27100FFF72AF9E06010B1012006B02E
:100F600010BD00F032F9FEE785F31188BFF34F8F13
:100F7000BFF36F8F7047F8B5044684B01E4600205B
:100F800014B900F022F9FEE7DFF8D472BD68BDB1F4
:100F900006290091019202940CDAFFF725FC022841
:100FA000B86807BF0A9A002300230022694600F0B0
:100FB00059FA05E0002332466946284600F0E7FA70
:100FC00005B0F0BDF8B586B0DFF89452296808681E
:100FD00010B90124002602E0C86806680024FFF763
:100FE00031FA01A800F0B4F80746019800283FD173
:100FF00054BBB7422DD3FFF72BFA2868C168CC68E1
:10100000201DFFF7B0FD94F82800410717D5A1690E
:1010100033463A468919204600F0DFF840B10020F7
:1010200000900023324600212046FFF7A4FF18B1AC
:10103000216A2046884725E000F0C7F8FEE700F067
:10104000FE0084F82800F3E7686801684C1EA4419C
:10105000E40FA8682246F11B00F022FCFFF7F8F924
:1010600080B980494FF080500860FFF77FFF09E0AA
:10107000FFF7EEF906E094F8280081073BD42046FC
:10108000FFF7CBFCA868002202A900F0CFFA0028E5
:101090009CD00298002803D505990498039A90479C
:1010A00002980028EED4049C606910B1201DFFF75F
:1010B0005AFD01A800F04CF802990929E2D8DFE8AE
:1010C00001F02121211A070621211A07DAE7D2E7C8
:1010D00094F8282042F0010284F828200399A161A5
:1010E00031B1034602460918204600F076F8C9E7F8
:1010F00000F06BF8FEE794F8280000F0FE0084F89A
:101100002800BFE794F8281041F0010184F8281066
:1011100002460399A0690B464118204600F05DF88D
:101120000028AFD0216A2046884794F8280041075C
:10113000A8D5002000900023039AA06982180021FE
:101140002046FFF718FF00289CD100F03EF8FEE78C
:101150002DE9FC410446FFF7CEF9414E05463069C2
:1011600085420BD30020356120602846BDE8F6811A
:1011700078603F61391D3068FFF7DCFC3168086832
:10118000F0B1C868D0F80080C768381DFFF7EBFCE5
:10119000396A3846884797F828004107EED5B8697C
:1011A00040448045E4D300200090002342460021C3
:1011B0003846FFF7E0FE0028E0D100F006F8FEE731
:1011C0007068306071600120CDE7502080F3118895
:1011D000BFF34F8FBFF36F8F704738B500248A423B
:1011E000416000611E4D06D38169D21A8A4206D23F
:1011F000011D686807E09A4203D2994201D3012495
:1012000003E0011D2868FFF795FC204632BD000071
:101210001CB5FFF72DFD124CA068E0B904F11400D5
:10122000FFF76BFC04F12800FFF767FC04F11400E2
:1012300004F12801002220606160009204F13C0367
:1012400004F18C0210210A2000F0C5F8A06010B152
:1012500007A100F010FBBDE81340FFF722BD00001E
:101260004C47002004ED00E0546D7220537663007B
:10127000546D725100000000704730B4002513E037
:1012800050F8042BD30744BFA9F101039A18091F92
:10129000042942F8045BFAD213468C0744BF158038
:1012A0009B1CC90748BF1D7050F8041B0029E7D1DB
:1012B00030BC7047EFF30980BFF36F8F264B1A687D
:1012C0001EF0100F08BF20ED108A20E9F04F1060CB
:1012D00009B44FF0500080F31188BFF34F8FBFF374
:1012E0006F8FFFF769F94FF0000080F3118809BC98
:1012F00019680868B0E8F04F1EF0100F08BFB0EC96
:10130000108A80F30988BFF36F8F7047124B1968FA
:101310000868B0E8F04F80F30988BFF36F8F4FF093
:10132000000080F3118870470C480068006880F363
:1013300008884FF0000080F3148862B661B6BFF3EE
:101340004F8FBFF36F8F00DFDFF81400016841F4A7
:101350007001016070470000A049002008ED00E026
:1013600088ED00E070B504000D4602D100F072F87F
:10137000FEE7FFF77DFC206CE16B226800FB01F3C8
:10138000491E484310441344A3600026A663E0604E
:10139000626004F144004FF0FF310170417075B993
:1013A0002069A0B104F11000FFF769F978B1DFF806
:1013B000E8144FF08050086000F0D1F907E004F124
:1013C0001000FFF79AFB04F12400FFF796FBFFF7EC
:1013D00068FC012070BD7CB51C46502320B983F306
:1013E000118800F0BCF9FEE724B983F3118800F0FE
:1013F000B6F9FEE72AB129B983F3118800F0AFF9F5
:10140000FEE769B90093009E502E0ED1069B009D09
:10141000012684F84660009400F00CF8204676BD62
:1014200083F3118800F09BF9FEE783F3118800F045
:1014300096F9FEE738B5049D00290CBF2D602A609F
:10144000E86329641C4601212846FFF78BFF85F8D5
:101450004C4031BD502080F31188BFF34F8FBFF354
:101460006F8F70472DE9F64782B004461E4650271D
:1014700014B900F072F9FEE75FEA010A01D1206CAD
:1014800060B9022E02D1E06B01280AD1FFF7ACF956
:1014900050B9039840B100F060F9FEE700F05DF943
:1014A000FEE700F05AF9FEE72746002400F03CF979
:1014B0002EE0039800284BD014B900F03FF9012426
:1014C000FFF7EFFBFEF7BEFFFFF7D2FB07F144008B
:1014D00000F037F904BF0022027000F037F904BFB2
:1014E00000224270FFF7DDFB00F04DF8002844D1E8
:1014F000FFF7BEFBB86BF96B884214BF00250125CE
:10150000FFF7CFFB45BB384600F076F9FEF7A0FFAA
:10151000FFF7AEFBB86BF96B884201D3022EC8D13E
:1015200032465146384600F01FF9796A29B107F171
:101530002400FFF7A4F808B904E018B1C8F8009037
:1015400000F00DF9FFF7ADFB012004B0BDE8F08716
:10155000FFF7A7FB0020F8E7039907F11000FFF75A
:1015600057F8384600F048F9FEF772FF0028CFD14F
:10157000C8F8009000F0F3F8CAE7384600F03CF9EC
:10158000FEF766FFE6E703A96846FFF7AFB82DE967
:10159000F8430446884615461E46502714B900F005
:1015A000DCF8FEE7B8F1000F01D1206C20BB022E61
:1015B00002D1E06B012822D1FFF798FBEFF31189EC
:1015C00000F02AF801D3022E21D194F94570324659
:1015D0004146204600F0C8F817F1010F12D1606AA9
:1015E00098B104F12400FFF74AF8002818BF002D35
:1015F0000BD00120286008E000F0AFF8FEE700F013
:10160000ACF8FEE77F1C84F84570012000E0002064
:1016100089F31188BDE8F28387F31188BFF34F8FF8
:10162000BFF36F8FA06BE16B884270472DE9F743E2
:1016300006460F460024502526B985F3118800F090
:101640008EF8FEE70FB9306C48B9FFF7CDF878B9DE
:10165000029868B185F3118800F081F8FEE785F300
:10166000118800F07CF8FEE700F075F8FEF7F0FE58
:10167000FFF7FEFAB56B00F057F82DB90298C8B91C
:10168000FFF70FFB002013E03946304600F0A0F8CA
:101690006D1EB563306940B106F11000FEF7EFFF33
:1016A00018B1C8F8009000F05AF8FFF7FAFA0120D4
:1016B000BDE8FE8314B900F041F80124FFF7F1FA08
:1016C000FEF7C0FEFFF7D4FA06F14400415711F1CE
:1016D000010F04BF0022027000F038F804BF00229E
:1016E0004270FFF7DEFA02A9FFF74EFF00283046EE
:1016F00010D100F0B5F80028B6D000F01AF800F0CC
:101700002AF8FEF7A5FE0028B2D1C8F8009000F034
:1017100026F8ADE700F070F8FEF79AFE304600F0CC
:101720009FF80028A4D0ADE7DFF86C814FF0805916
:101730007047029906F12400FEF76ABF6846FEF77B
:10174000CEBF90F9001011F1010F704790F9011010
:1017500011F1010F704730464EE087F31188BFF357
:101760004F8FBFF36F8F7047F8B506461546B46BC1
:10177000326C002742B9306830BBB068FFF743F8DD
:1017800000210746B1601FE065B9706800F0ACF851
:101790007068316CB26808449042706014D330684D
:1017A000706011E0F06800F09FF8306CF168404222
:1017B0000144F1603268914202D2B1680844F0609D
:1017C000022D01D104B1641E641CB4633846F2BD1D
:1017D000026C002A0B4600D1704710B5C1688468BE
:1017E0001144C160A14224BF0168C160C168BDE865
:1017F0001040184600F078B8F8B50546FFF738FAFB
:1018000005F1440494F9016007E005F12400FEF7B6
:1018100036FF08B1FEF79DFF761E70B2012802DB8D
:10182000686A0028F1D14FF0FF366670FFF739FA89
:10183000FFF71EFA94F9007007E005F11000FEF7BB
:101840001EFF08B1FEF785FF7F1E78B2012802DB7C
:1018500028690028F1D12670BDE8F140FFF721BAD0
:1018600010B50446FFF704FAA06B441EA441FFF72D
:1018700018FAE00F10BD10B50023084C54F83320BF
:101880001AB15B1C082BF9D310BD44F8331004EBDC
:10189000C301486010BD000004ED00E0144A0020C0
:1018A000F8B504460D461646FFF7E2F904F138078D
:1018B00097F90C0010F1010F04BF0021397397F95B
:1018C0000D0010F1010F04BF00217973FFF7E9F952
:1018D000386828B93246294604F12400FEF7B4FEE0
:1018E0002046BDE8F24087E74AB1000011F8013B0D
:1018F000521E00F8013B1CBF11F8013BF8E770478E
:101900002DE9F843040016D02078DFF8F462C1070F
:1019100013D5B06800F00C00042807D0B06800F0C0
:101920000C0008283DD1706841023AD53068810327
:1019300003D56068002800F05E812078B14F8107F0
:1019400019D5B06810F00C0F07D0B06800F00C008B
:1019500008285BD17068410258D43068810703D5EC
:10196000E068012840F047813168206921F0F801E2
:1019700041EAC00131602178080779D56069A24940
:10198000002868D001220A6000F042F90546706F15
:1019900081076DD400F03CF9401B0228F7D90320E1
:1019A0002CE16068B0F5803F04D1306840F48030AD
:1019B000306011E0B0F5A02F306806D140F48020EF
:1019C0003060316841F4803105E020F480303060CF
:1019D000316821F480213160606858B100F018F955
:1019E000054630688103A8D400F012F9401B652831
:1019F000F7D3D4E700F00CF90546306881039CD595
:101A000000F006F9401B6528F7D3C8E7E068A8B1E5
:101A10000121396000F0FCF805463068810705D4E3
:101A200000F0F6F8401B0228F7D9B8E730682169C2
:101A300020F0F80040EAC10030609CE7386000F018
:101A4000E7F805463168880795D500F0E1F8401BB6
:101A50000228F7D9A3E7086000F0DAF80546706FAE
:101A6000810705D500F0D4F8401B0228F7D996E786
:101A7000207841075FD5306C0025C1000AD400955D
:101A80000125316C41F080513164306C00F08050A0
:101A900000900098DFF87481D8F80000C10513D4D5
:101AA000D8F8000040F48070C8F8000000F0B0F8EA
:101AB0008146D8F80000C10506D400F0A9F8A0EBD3
:101AC00009000228F5D96AE7A068012805D0052891
:101AD000306F06D140F004003067306F40F00100F5
:101AE00005E0400840003067306F20F004003067A8
:101AF00041F28938A06860B100F08AF88146306F01
:101B0000810713D400F084F8A0EB09004045F6D318
:101B100045E700F07DF88146306F810706D500F07B
:101B200077F8A0EB09004045F6D338E71DB1306CDB
:101B300020F080503064A06900285ED0B16801F0C8
:101B40000C0108293AD002282AD10020386600F07A
:101B50005FF805463068810105D500F059F8401B53
:101B60000228F7D91BE7E069216A626A0843A16A83
:101B7000490840EA8210491E40EA0140E16A40EA11
:101B8000016070600120386600F042F80446306859
:101B9000810132D400F03CF8001B0228F7D9FEE6A0
:101BA0000020386600F034F804463068810124D5FE
:101BB00000F02EF8001B0228F7D9F0E601281AD011
:101BC0007068E26900F48001914202BF00F03F01B9
:101BD000226A91420FD147F6C071626A0140914278
:101BE00002BF00F44031A26A914202BF00F070606F
:101BF000E16A884201D0012000E00020BDE8F283C4
:101C00000038024000004742800E4742007000400A
:101C100001484068704700BF0C000020F8B59AB03A
:101C200000F058F900F0E0F8002000909D4C9E482C
:101C3000016841F00401016004F1B405026802F09A
:101C40000402009200220099009204F13406036815
:101C500043F48073036004F1A807016801F4807104
:101C600000F0BDF843F020030360016801F020019B
:101C700000F0B5F843F080030360016801F08001D3
:101C800000F0ADF843F001030360016801F00101C9
:101C900000F0A5F843F002030360016801F00201BF
:101CA00000F09DF843F010030360016801F010019B
:101CB000009100997D490092036843F00803036096
:101CC000006800F0080000900098296404F1F40016
:101CD00000F01AF9764870670021B167F167296052
:101CE000E96129626962A962384600F01DF90121A3
:101CF000384600F044F96F486863002140F6FF70F1
:101D0000E863A96304F1E80000F089F934220021B6
:101D10000DA800F0A6F934220021684600F0A1F9D0
:101D200065482060002107206160E16021616061F9
:101D300003210E20A161E0610022052140F28E20E6
:101D4000A2602162606240F2E511A1624FF4257049
:101D5000E06240F2E71121633280B270204600F069
:101D60008BF900200D900E90109012900521159186
:101D700019A80021002217918DF8641041700F926C
:101D8000119213924FF480661692189282701496F4
:101D90000DA9204600F0E3F90CA8002105220091CE
:101DA0000191029103910491059106910892099184
:101DB0000A910B91ADF830108170079601226946A7
:101DC000204600F0CCF9FEF7D9FF3C4A0FF2F900AB
:101DD0000021FFF70EF8A864FEF7EAFFFEE7009186
:101DE000009900920368704780B59EB030220021B0
:101DF00006A800F036F91422002101A800F031F9FC
:101E00003022002112A800F02CF9002000900123BC
:101E10002B48016841F0805101600021006800F00A
:101E200080500090009827480091026842F4404298
:101E300002600A22006800F44040009006A8009961
:101E4000069210210A91002202210C910D92082184
:101E5000B4220E910F920221042209930B93109148
:101E60001192FFF74DFD00F02BFA022102910022A2
:101E700003920F204FF4A051019004914FF480522F
:101E80000592052101A800F057FA0821312212918C
:101E900016920221002218911B9212A800F00CFB4E
:101EA0001FB000BD784800203038024000300240AA
:101EB00000B002400030004000680140C82D00081A
:101EC000403802400070004080B50120FEF7EEFF70
:101ED000FBE7000080B50B48016841F40071016028
:101EE000026842F480620260016841F4807101601E
:101EF000032000F000FC0F2000F046FC00F064FC22
:101F0000002002BD003C024010B5040001D10120B8
:101F100010BD607920B900212171204600F072FCCB
:101F200001206071002010BD38B5040001D10120EE
:101F300032BD04F13805687820B9002129702046A7
:101F400000F073FC0220687021680A68606822F45F
:101F5000403202430A6021684A6BA068D20840EA16
:101F6000C2024A6321680A6CE068920B40EA82323E
:101F70000A640021696001206870002032BD70B5DC
:101F800000F048F801D1022070BD01231370022433
:101F900000EB0115547005F118035C689D680A2C6C
:101FA00018BF092C44EA054504D1DC6804F07F44DD
:101FB000254302E0DC6845EA04650468144E89B9EB
:101FC000616A0E403543656205681C68AC615968FA
:101FD0000A2918BF092916D1D968006821F07F4164
:101FE000816210E0E1690E403543E56105681C68D7
:101FF0002C6159680A2918BF092904D1D9680068D9
:1020000021F07F410162012151700020107070BDEC
:10201000F0FFFC0000F138021378012B704738B54F
:10202000040001D1012032BD20684CF6CC41016092
:1020300045F25552026063684360A1688160FFF712
:10204000E7FD05462168C86830B1FFF7E1FD401B98
:102050003128F7D3032032BD4AF6AA2008600020B9
:1020600032BD10B5044610460A460146204600F02F
:10207000D9FC204610BD000070B5040001D101203C
:1020800070BD04F1A005687820B9002129702046B0
:1020900000F0DEFB022068702068816921F0704149
:1020A0008161226893696668A068E16806432069D7
:1020B0000E430643334393612168DFF8FC018A68CD
:1020C00002408A6021688A686369A66946EA034615
:1020D00032438A602168CA680240CA602168CA68BF
:1020E000E369266A46EA03463243CA6021680A6900
:1020F00002400A6121680A69636AA66A46EA0346E1
:1021000032430A6121684A69104048612068416988
:10211000E26A236B43EA02431943416104F134004C
:10212000236841788278DE6A06F07F46DE62120418
:102130002368DE6A007842EA012101433143D96213
:102140002068416B41F0060141632068816941F0DC
:1021500001018161002068600121697070BD2DE975
:10216000F843044604F1A0058846287801289146E2
:1021700008BF022013D03427012007FB09F728707D
:102180000226E7196E7007F138003422FFF7ACFB26
:102190004A464146204600F00BF800F002F8BDE840
:1021A000F28321680120486268700020287070471F
:1021B000F0B503684C68DD68C5F30B4305681C196E
:1021C00015EBC213843300275E6806F470465E6028
:1021D0000E680368E868C0F30B4013EBC21286195F
:1021E0008432761C46EA04445460C868DC68C4F350
:1021F0000A042018946804F4704494608C68DB68C6
:10220000C3F30A031C19641C44EA0040906001F106
:1022100030031069C008C0001061086910619C7823
:1022200058788D69966997611B7843EA002040EAE7
:10223000044040EA056090615069000A0002506164
:1022400048695061D3691D480340D361086ACB696E
:102250000343D361936A97624B6A9362086908B932
:1022600004230EE0012808BF03230AD0042818BF66
:10227000022803D0032818BF072801D1022300E059
:102280000123D06A00F0E020D0628C6A4D680868B3
:102290005C432D1A6B43DB1C43EA0443D362106B8F
:1022A000C00AC0021063C86A1063116841F00101DE
:1022B0001160F0BD0000000000F800F0F8F8FFFF2A
:1022C000F8B500F027F8012100F01EF83160FFF7A3
:1022D0009FFC07462868C10306D4FFF799FCC01B82
:1022E000A042F7D30320F2BD01207060FFF790FCFD
:1022F00006462868810305D4FFF78AFC801BA042AC
:10230000F7D3EFE70020F2BD006800F080500090A6
:10231000009870470020009040F2E9340448054ED0
:102320000168024D41F08051016070470470004027
:102330004038024040000E422DE9F04104000F46B3
:1023400054D0404E306800F00F00B84202D200F086
:1023500073F84BD120683C4D810712D5400703D557
:10236000A96841F4E051A9602078010703D5A86865
:1023700040F46040A860A968A06821F0F001014322
:10238000A9602178C80729D56068012802D1296889
:102390008A0305E0022818BF032803D129688A01AF
:1023A00003D423E029688A0720D5A968890840EA70
:1023B0008100A860FFF72CFC8046A868616800F0E7
:1023C0000C00B0EB810F09D0FFF722FCA0EB080056
:1023D00041F289318842F0D303202BE0306800F0CD
:1023E0000F00874204D200F027F801D0012021E03D
:1023F0002078410705D5AA68E06822F4E05202433C
:10240000AA602178080706D5A968206921F46041EF
:1024100041EAC001A96000F01FF8AA680B490C4B03
:10242000C2F30312895CC84018600A48006800F0D3
:10243000ABF90020BDE8F0813770316801F00F0181
:10244000B9427047003C024000380240902D00081D
:10245000180000201400002030B5144C606800F013
:102460000C00042802D0082802D01DE0104830BD1E
:10247000226820680023410202F03F0204D525684B
:102480000B49C5F3881003E020680A49C0F388109F
:10249000A1FB000100F0D0FA2168C1F30141491C01
:1024A0004900B0FBF1F030BD024830BD04380240B5
:1024B00000127A000024F4002DE9FC410446DFF804
:1024C00000622078DFF8FC51DFF8FC7110F0430F58
:1024D00043D000203860FFF79BFB80462968080145
:1024E00007D5FFF795FBA0EB08000228F6D90320DB
:1024F000DCE02078C10705D5A1686068090741EADA
:1025000080113160207881070CD53068E2686168FD
:1025100000F0CEF83060B068E1694009491E41EA38
:102520004010B0602078410608D5E168606809066F
:1025300041EA8011A06841EA0071316001213960EF
:10254000FFF766FB80462868010106D4FFF760FBB1
:10255000A0EB08000228F6D9C9E7207810F00C0F8C
:1025600040D00020B860FFF753FB80462868810008
:1025700006D5FFF74DFBA0EB08000228F6D9B6E719
:10258000207841070DD570686269216900F090F8E4
:102590007060B068216A20F4F850491E40EA0120BA
:1025A000B060207801070FD57068216900F0706075
:1025B00040EA8110A16940EA01707060B168606A08
:1025C00021F440310143B1600121B960FFF720FBE4
:1025D00006462868810005D4FFF71AFB801B0228F5
:1025E000F7D984E72078810658D500200090296C1F
:1025F000DFF8D87041F080512964286C00F08050D9
:1026000000900098396841F480713960FFF700FB51
:1026100006463868C10505D4FFF7FAFA801B022880
:10262000F7D964E7286F10F440701EBFA16A01F467
:10263000407188421AD0286FDFF8941001220A6096
:1026400000230B6020F440702867286FC1070DD568
:10265000FFF7DEFA0646286F810707D4FFF7D8FA9E
:10266000801B41F289318842F5D340E7A16A01F429
:102670004070B0F5407F07D1AA68164822F4F812DE
:1026800001401143A96003E0A86820F4F810A86095
:10269000286FA16AC1F30B01084328672078C1069F
:1026A00003D594F82C000C4908600020BDE8F681A1
:1026B000120642EA811200F0E04010437047000029
:1026C00084380240003802406800474200700040F1
:1026D000400E4742FFFCFF0FE01147420901020094
:1026E00002D4244881547047234B02F00F021A444D
:1026F00002F8041C7047214B19684FF6FF020002D4
:10270000114000F4E06008431D4908431860704719
:1027100070B51A4B1C68C4F302230124C3F10705EA
:10272000052D2EBF0F2504FA05F56D1E1E1D072E63
:1027300034BF0023DB1E2940994004FA03F3BDE8AF
:1027400070405B1E1A401143C8E710B5401EB0F13F
:10275000807F01D3012010BD0A4C60600F214FF033
:10276000FF30FFF7BBFF0021A160072020600020A1
:1027700010BD000000E400E018ED00E00CED00E00A
:102780000000FA0510E000E038B50D4D0D4B2A7839
:1027900004464FF47A711868B1FBF2F2B0FBF2F024
:1027A000FFF7D3FF50B9102C08D2002221464FF07A
:1027B000FF30FFF7ADFFAC60002032BD012032BD1D
:1027C0000C0000201800002082B0002000900022A1
:1027D0008748416841F480414160416801F480418B
:1027E0000091009900920F21036843F08053036029
:1027F000006800F08050009000986FF0010002B077
:10280000FFF786BF81B000687A4988420BD1002269
:1028100079480092016841F480510160006800F439
:1028200080500090009801B0704781B000687349F3
:1028300088420BD1002270480092016841F40001E7
:102840000160006800F400000090009801B070473B
:1028500038B586B00446142200216846FFF701FC13
:1028600021686748814240F0A28000226248654D9D
:1028700005924FF48064416941F080614161416992
:1028800001F0806100F0AFF843F4807303600168E9
:1028900001F4807100F0A7F843F0200303600168A1
:1028A00001F0200100F09FF843F00103036001688C
:1028B00001F0010100F097F843F0020303600168A2
:1028C00001F0020100F08FF843F01003036001688B
:1028D00001F0100100F087F843F080030360016805
:1028E00001F0800100F07FF843F008030360016805
:1028F00001F0080105910599059240F20461036811
:1029000043F0040303600222006800F00400059015
:1029100005983D48009101920021029103910E21FA
:102920000491694600F00CF900F053F8374800F0C4
:1029300007F900F04AF8482000F03BF8344800F06E
:10294000FFF800F042F803200221009001910922D3
:1029500000F036F84FF4584002210090019100F049
:1029600034F869460E2204922A4800F0E9F800F093
:102970002CF84FF470600221009001910E2200F0BB
:102980001FF800F022F84FF4406000F012F82248DF
:1029900000F0D6F800F01DF8204800F0D1F800F063
:1029A00014F8802000F005F81D4800F0C9F807B0C1
:1029B00030BD0221009001910E22049269467047B9
:1029C00004926946284600F0BBB8002202920392A6
:1029D0007047002202920392022101910E2204927A
:1029E0000094694670470591059905920368704700
:1029F00040380240003002403038024000B002400F
:102A0000006801400004024000200240001402401F
:102A10000000024000100240001C0240000C024076
:102A2000000802404018491C1CBFB1F1010100F828
:102A3000012DF9D170470000D3BBD9B1B2F5803F69
:102A40005BD2022A1ED98C46B1FBF2F102FB11C304
:102A50001B0443EA1043B3FBF2FC02FB1C3380B2BD
:102A600040EA0343B3FBF2F002FB103240EA0C40B1
:102A700000237047022A05D98446B0FBF2F002FB1E
:102A800010C270474AB105D100F0010249085FEA5F
:102A90003000704700220023704700F04DB90B0052
:102AA0000200002100207047F7D300220023704766
:102AB000904271EB030CF2D370B5B1FA81F4B3FA22
:102AC00083F52C1BA340C4F1200532FA05F63343ED
:102AD000A2405FF00046E64002E05B085FEA320297
:102AE000841A71EB030524BF204629467641F4D3AE
:102AF00002000B003000002170BD70B5B1FA81F406
:102B0000B2FA82F5C4F120046419B4F12006DAD3D4
:102B1000B2405FF00044F440002502E052085FEA52
:102B20003303C61A71EB020E24BF3046714664416E
:102B30006D41F3D302000B002000290070BD00009E
:102B40002DE9F84F0D4600266E496F4A0F230446C3
:102B500001202F68B04000EA0708804540F0CB8094
:102B60004FEA460C032707FA0CF76FEA070E6F6867
:102B7000012F18BF022F03D0112F18BF122F12D10F
:102B8000A768D5F80C900EEA070709FA0CF949EA8C
:102B90000707A760676827EA00006F68C7F3001798
:102BA000B74038436060E068AF680EEA000007FA9B
:102BB0000CF73843E060B0006F68022F18BF122F87
:102BC00012D1F70804EB870700F01C09D7F820A002
:102BD00003FA09FB2AEA0B0AD5F810B00BFA09F937
:102BE00049EA0A09C7F8209027680EEA070E2F79EC
:102BF00007F0030707FA0CF747EA0E0727606F682C
:102C0000FF0078D5002700974FEA960C176847F425
:102C10008047176000F00C00176807F480470097A2
:102C200003FA00FE009F394F57F82C7027EA0E0E6A
:102C3000374FBC4208BF00272CD0364FBC4208BFDC
:102C4000012727D0344FBC4208BF022722D0334F80
:102C5000BC4208BF03271DD0314FBC4208BF042728
:102C600018D0304FBC4208BF052713D02E4FBC42AE
:102C700008BF06270ED02D4FBC4208BF072709D03A
:102C80002B4FBC4208BF082704D02A4FBC420CBFC0
:102C900009270A2707FA00F01C4F40EA0E0047F800
:102CA0002C006FEA08000F6800EA070C6F68FF034A
:102CB00048BF48EA0C0CC1F800C04F6800EA070C96
:102CC0006F68BF0348BF48EA0C0CC1F804C08F68A6
:102CD00000EA070C6F68FF0248BF48EA0C0CC1F815
:102CE00008C0CF6800EA070C6868800248BF48EA5D
:102CF0000C0CC1F80CC0761C0F2E7FF629AFBDE876
:102D0000F18F0000003C0140443802400838014087
:102D1000000002400004024000080240000C024093
:102D2000001002400014024000180240001C024043
:102D30000020024000240240704730B501688468DA
:102D40004218416802EB5103C90703D54C4401E026
:102D5000491C05D19A420AD012F9011B12F8015BF5
:102D6000002904F8015BF3D4491EF7D5F2E70C30D3
:102D700030BD00000448054A016841F4700101605B
:102D80004FF000601060704788ED00E008ED00E053
:102D9000000000000000000001020304060708090B
:102DA00010B5074979441831064C7C44163404E0C8
:102DB0000A68081D114488470146A142F8D110BD98
:102DC00084000000A0000000BC2E000800000000ED
:102DD00000000000000000000000000000020000F1
:102DE0001800000000000000000000007047FEE72F
:102DF000FEE7FEE7FEE7704780B500F009F8FDF753
:102E0000F3FC012803D0BDE80140FDF75BBF01BD25
:102E10000248416802788A18426070470C0000201E
:102E20004EF68851CEF20001086840F47000086048
:102E3000BFF34F8FBFF36F8F4FF00070E1EE100ABA
:102E40007047000037E4FFFF3C4A00001C000020F0
:102E500000000000E7FEFFFFE40100002400000086
:102E60000000002000F00DF8002801D0FFF798FFC7
:102E7000AFF300800020AFF30080FEF7CFFE00F03C
:102E800002F80120704700F001B8000007463846FC
:102E900000F002F8FBE7000080B5AFF30080024AC3
:102EA00011001820ABBEFBE7260002000148804756
:102EB00001480047752D0008C92E00086465666149
:102EC000756C745461736B00AFF30080FFF7A8FF5B
:102ED000FFF7C8FFFFF7FEBFFFF7FEBFFFF7FEBF1C
:102EE000FFF7FEBFFFF7FEBFFFF7FEBFFFF7FEBF16
:102EF000FFF7FEBFFFF7FEBFFFF7FEBFFFF7FEBF06
:102F0000FFF7FEBFFFF7FEBFFFF7FEBFFFF7FEBFF5
:102F1000FFF7FEBFFFF7FEBFFFF7FEBFFFF7FEBFE5
:102F2000FFF7FEBFFFF7FEBFFFF7FEBFFFF7FEBFD5
:102F3000FFF7FEBFFFF7FEBFFFF7FEBFFFF7FEBFC5
:102F4000FFF7FEBFFFF7FEBFFFF7FEBFFFF7FEBFB5
:102F5000FFF7FEBFFFF7FEBFFFF7FEBFFFF7FEBFA5
:102F6000FFF7FEBFFFF7FEBFFFF7FEBFFFF7FEBF95
:102F7000FFF7FEBFFFF7FEBFFFF7FEBFFFF7FEBF85
:102F8000FFF7FEBFFFF7FEBFFFF7FEBFFFF7FEBF75
:102F9000FFF7FEBFFFF7FEBFFFF7FEBFFFF7FEBF65
:102FA000FFF7FEBFFFF7FEBFFFF7FEBFFFF7FEBF55
:102FB000FFF7FEBFFFF7FEBFFFF7FEBFFFF7FEBF45
:102FC000FFF7FEBFFFF7FEBFFFF7FEBFFFF7FEBF35
:102FD000FFF7FEBFFFF7FEBFFFF7FEBFFFF7FEBF25
:102FE000FFF7FEBFFFF7FEBFFFF7FEBFFFF7FEBF15
:102FF000FFF7FEBFFFF7FEBFFFF7FEBFFFF7FEBF05
:10300000FFF7FEBFFFF7FEBFFFF7FEBFFFF7FEBFF4
:10301000FFF7FEBFFFF7FEBFFFF7FEBFFFF7FEBFE4
:10302000FFF7FEBFFFF7FEBFFFF7FEBFFFF7FEBFD4
:10303000FFF7FEBFFFF7FEBFFFF7FEBFFC00FCAAD5
:0E304000FC000001F9000010FC000224F40066
:0400000508002EC9F8
:00000001FF
